:1000000071C000008EC000008CC000008AC00000DB
:1000100088C0000086C0000084C0000082C00000CC
:1000200080C000007EC000007CC000007AC00000DC
:1000300078C0000076C0000074C0000072C00000EC
:1000400070C000006EC000006CC000006AC00000FC
:1000500068C0000066C0000064C0000062C000000C
:1000600060C00000ECC0000099C000005AC0000051
:1000700058C0000056C0000054C0000052C000002C
:1000800050C000004EC000004CC000004AC000003C
:1000900048C0000046C0000044C0000042C000004C
:1000A00040C000003EC000003CC000003AC000005C
:1000B00038C0000036C0000034C0000032C000006C
:1000C00030C000002EC000002CC000002AC000007C
:1000D00028C0000026C0000024C0000022C000008C
:1000E00020C0000011241FBECFEFD1E2DEBFCDBF84
:1000F00000E00CBF12E0A0E0B2E0E6E4F9E000E0CE
:100100000BBF02C007900D92AE33B107D9F722E0C2
:10011000AEE3B2E001C01D92A737B207E1F78BD37F
:1001200010C46ECFF89420916D0290916C02291347
:1001300005C0E1ECF0E090819062908360916D02E7
:1001400090916C02492F50E020916E0230E02150D6
:1001500031094217530711F09F5F01C090E0691306
:1001600001C0FFCFECE6F2E09081A0916F02B09168
:100170007002A90FB11D8C934081242F30E0809133
:100180006E0290E001972817390719F081E0840F7B
:1001900001C080E080936C02789408951F920F92C2
:1001A0000FB60F9211240BB60F922F933F934F93DC
:1001B0005F938F939F93AF93BF93EF93FF93909130
:1001C0006D0280916C02981721F190916D028091DF
:1001D0006C02981301C0FFCFEDE6F2E08081A091A0
:1001E0006F02B0917002A80FB11D5C914081242F65
:1001F00030E080916E0290E001972817390719F0DE
:1002000081E0840F01C080E080936D025093C600AE
:1002100005C0E1ECF0E080818F7D8083FF91EF915C
:10022000BF91AF919F918F915F914F913F912F918E
:100230000F900BBE0F900FBE0F901F9018951F923E
:100240000F920FB60F9211240BB60F922F933F937C
:100250004F935F936F938F939F93AF93BF93EF935E
:10026000FF935091C6006091680240916702242F6D
:1002700030E08091690290E001972817390719F062
:1002800081E0840F01C080E0681301C0FFCFE7E682
:10029000F2E08081A0916A02B0916B02A80FB11DBB
:1002A0005C934081242F30E08091690290E00197B7
:1002B0002817390719F081E0840F01C080E080938E
:1002C0006702FF91EF91BF91AF919F918F916F91D5
:1002D0005F914F913F912F910F900BBE0F900FBEEA
:1002E0000F901F9018958EBD0DB407FEFDCF089599
:1002F000209A289A8CB58B7F8CBD8FE58CBD8CB5F0
:100300008D7F8CBD8CB58E7F8CBD89EF90E0019781
:10031000F1F700C000000895CF93DF9300D000D024
:10032000CDB7DEB787E084B980E092E090937402A5
:1003300080937302DDDF1092520240E02DE632E03E
:10034000ECE6F2E081EC90E00F2EFEE6CF2EF2E03C
:10035000DF2EF02D10E050E04A5C5D4FDA01FC909A
:10036000F894D9015C914081541304C0DC014C9194
:1003700040624C93D901EC900081602F70E0D6016F
:100380004C9150E0415051096417750719F041E054
:10039000400F01C0412FE41201C0FFCF60814091A6
:1003A0006F0250917002460F511DDA01FC920081DC
:1003B000602F70E0D6014C9150E041505109641714
:1003C000750719F041E0400F01C0412F4083789438
:1003D000409152024F5F40935202473008F4BBCF26
:1003E000BFEFE4E3FCE0B150E040F040E1F700C0D3
:1003F00000001092520240E02DE632E0ECE6F2E01E
:1004000081EC90E00F2EFEE6CF2EF2E0DF2EF02DF5
:1004100010E050E0495E5D4FDA01FC90F894D9019C
:100420005C914081541304C0DC014C9140624C93B8
:10043000D901EC900081602F70E0D6014C9150E022
:10044000415051096417750719F041E0400F01C090
:10045000412FE41201C0FFCF608140916F025091A3
:100460007002460F511DDA01FC920081602F70E08E
:10047000D6014C9150E0415051096417750719F0AD
:1004800041E0400F01C0412F4083789440915202D7
:100490004F5F40935202453008F4BBCFB12C0F2E72
:1004A000FDE68F2EF2E09F2EF02D0CE612E00F2ECF
:1004B000F1ECCF2ED12CF02D0F2EFEE6EF2EF2E038
:1004C000FF2EF02DAB2C28988DE20DDF88E20BDF9C
:1004D000289AE1EEF4E03197F1F700C00000289887
:1004E0008DEA01DF8B2DFFDE6EB5289AB0925202A5
:1004F0008B2DE82FF0E0E25FFD4F5081F894D4019E
:100500009C91F8018081981304C0D6018C9180627F
:100510008C93F4017081D8014C91242F30E0F701C5
:10052000808190E001972817390719F081E0840F46
:1005300001C08A2D781301C0FFCFD8018C91E091C2
:100540006F02F0917002E80FF11D50838C91482FDB
:1005500050E0F701208130E0215031094217530764
:1005600011F08F5F01C08A2DD8018C93789480910F
:1005700052028F5F80935202883008F4BACFBFE3F3
:10058000EDE0F3E0B150E040F040E1F700C00000E2
:10059000683209F098CF1092520240E02DE632E026
:1005A000ECE6F2E081EC90E00F2EFEE6CF2EF2E0DA
:1005B000DF2EF02D10E050E0485D5D4FDA01FC9039
:1005C000F894D9015C914081541304C0DC014C9132
:1005D00040624C93D901EC900081602F70E0D6010D
:1005E0004C9150E0415051096417750719F041E0F2
:1005F000400F01C0412FE41201C0FFCF6081409144
:100600006F0250917002460F511DDA01FC92008179
:10061000602F70E0D6014C9150E0415051096417B1
:10062000750719F041E0400F01C0412F40837894D5
:10063000409152024F5F409352024D3008F4BBCFBD
:10064000289881E350DE88E04EDE289AE1EEF4E05F
:100650003197F1F700C00000289881EB44DE80E07C
:1006600042DE8EB5289A289888E33DDE80E03BDEA6
:10067000289A81EE94E00197F1F700C000002898D5
:1006800088EB31DE80E02FDE8EB5289A1092520280
:1006900040E02DE632E0ECE6F2E081EC90E00F2E57
:1006A000FEE6CF2EF2E0DF2EF02D10E050E0435EAC
:1006B0005D4FDA01FC90F894D9015C9140815413AC
:1006C00004C0DC014C9140624C93D901EC90008154
:1006D000602F70E0D6014C9150E0415051096417F1
:1006E000750719F041E0400F01C0412FE41201C02D
:1006F000FFCF608140916F0250917002460F511DF3
:10070000DA01FC920081602F70E0D6014C9150E03C
:10071000415051096417750719F041E0400F01C0BD
:10072000412F40837894409152024F5F4093520290
:100730004A3008F4BBCF6E01B7E0CB0ED11CB12C10
:100740000F2EFDE64F2EF2E05F2EF02D0CE612E0AC
:100750000F2EF1EC6F2E712CF02D0F2EFEE68F2E4A
:10076000F2E09F2EF02DAB2C289882EFBCDDFE012D
:1007700031967F018B2DB7DD8EB5D7018D937D012D
:10078000AC15BD05B9F7289AB09252028B2DE1E065
:10079000F0E0EC0FFD1FE80FF11D5081F894F2011D
:1007A0009081D8018C91981304C0F30180818062FC
:1007B0008083D2016C91F8014081242F30E0D40174
:1007C0008C9190E001972817390719F081E0840F88
:1007D00001C08A2D681301C0FFCFF8018081E0912C
:1007E0006F02F0917002E80FF11D5083D8014C9117
:1007F000842F90E0F401208130E0215031098217EC
:10080000930719F081E0840F01C08A2DD8018C93E1
:100810007894809152028F5F80935202863008F460
:10082000B6CFBFEFE4E3FCE0B150E040F040E1F7C9
:1008300000C0000099CFCF93DF93CDB7DEB76997A3
:100840000FB6F894DEBF0FBECDBF8FEF80930701C8
:10085000E8E0F1E08083108281B982B912B808988B
:1008600009980A9881E08093680080E180936B008A
:10087000F8941092C5008CE08093C400E0ECF0E0A6
:1008800080818260808388E98093C10086E08093C4
:10089000C2001D8A1E8A24E12F8B8EE392E0998F7D
:1008A000888F85E0FE017596DE01169601900D9207
:1008B0008A95E1F785E0FE013696DE0111960190FA
:1008C0000D928A95E1F785E0FE013196ACE6B2E043
:1008D00001900D928A95E1F71D8A1E8A2F8B83E580
:1008E00092E0998F888F85E0FE017596DE01509623
:1008F00001900D928A95E1F785E0FE017096DE0188
:100900001B9601900D928A95E1F785E0FE013B96DA
:10091000A7E6B2E001900D928A95E1F7789488E01D
:1009200082B982E08093080187EA91E60197F1F7A6
:1009300000C0000087EA91E60197F1F700C00000CF
:06094000EBDCF894FFCF90
:100946000000000200000000920000000000426F5C
:1009560074746F6D200A00546F70200A004461742D
:10096600612069733A200A00506F77657220436CE4
:0E097600656172200A005374617274200A00D9
:00000001FF
