:1000000071C000008EC000008CC000008AC00000DB
:1000100088C0000086C0000084C0000082C00000CC
:1000200080C000007EC000007CC000007AC00000DC
:1000300078C0000076C0000074C0000072C00000EC
:1000400070C000006EC000006CC000006AC00000FC
:1000500068C0000066C0000064C0000062C000000C
:1000600060C000005EC000005CC000005AC000001C
:1000700058C0000022C1000054C0000052C000005F
:1000800050C000004EC000004CC000004AC000003C
:10009000AEC100005FC1000044C0000042C00000CB
:1000A00040C000003EC000003CC000003AC000005C
:1000B00038C0000036C0000034C0000032C000006C
:1000C00030C000002EC000008BC000002AC000001D
:1000D00028C0000026C0000024C0000022C000008C
:1000E00020C0000011241FBECFEFD1E2DEBFCDBF84
:1000F00000E00CBF12E0A0E0B2E0E4EDF5E000E0CB
:100100000BBF02C007900D92AC32B107D9F722E0C5
:10011000ACE2B2E001C01D92A236B207E1F7FED117
:1001200057C26ECFFC0151814081242F30E0828183
:1001300090E001972817390719F081E0840F01C07A
:1001400080E0581301C0FFCF8081A381B481A80F44
:10015000B11D6C934081242F30E0828190E00197A3
:100160002817390719F081E0840F01C080E08083EF
:100170000895F89420915E0290915D02291305C0C4
:100180009091C90090629093C900682F8DE592E02C
:10019000C9DF789408950B9A8FEF82B912B8089549
:1001A000139A08951398089582B198E0892782B927
:1001B0000895E0E2F1E080811082E1E2F1E08081E7
:1001C0001082808183608083E2E2F1E0808110828E
:1001D000E3E7F0E080818160808380E090E0089533
:1001E0001F920F920FB60F9211240BB60F922F93FE
:1001F0003F934F935F936F937F938F939F93AF93AF
:10020000BF93EF93FF93CEDF10922D0210922C023A
:10021000E3E7F0E080818E7F8083FF91EF91BF91D3
:10022000AF919F918F917F916F915F914F913F918E
:100230002F910F900BBE0F900FBE0F901F9018952F
:10024000ECE7F0E084E6808380818F778083808193
:100250008F7E80838081877F808380818D7F808374
:1002600080818E7F8083EBE7F0E08081877F8083D1
:100270008FEC80937A0080818F77808380818B7F61
:10028000808380818D7F808380818E7F8083EEE775
:10029000F0E0808181608083ADE7B0E08C91816087
:1002A0008C9380818F7E808380E090E00895EAE7E0
:1002B000F0E080818064808308951F920F920FB6D2
:1002C0000F9211240BB60F922F933F934F935F938E
:1002D0006F937F938F939F93AF93BF93EF93FF930E
:1002E0002091790080912C0290912D02892B51F45C
:1002F0002A3A40F055DF81E090E090932D02809300
:100300002C0257DF2091790080912C0290912D02D0
:10031000019769F4273958F4809173008E7F809398
:10032000730082E090E090932D0280932C02FF9165
:10033000EF91BF91AF919F918F917F916F915F915D
:100340004F913F912F910F900BBE0F900FBE0F90CA
:100350001F9018951F920F920FB60F9211240BB693
:100360000F922F933F934F935F938F939F93EF93AE
:10037000FF9390915E0280915D02981721F1909118
:100380005E0280915D02981301C0FFCF80915E02F2
:10039000E0916002F0916102E80FF11D50814091FF
:1003A0005E02242F30E080915F0290E001972817D1
:1003B000390719F081E0840F01C080E080935E026C
:1003C0005093CE0005C08091C9008F7D8093C900F5
:1003D000FF91EF919F918F915F914F913F912F915D
:1003E0000F900BBE0F900FBE0F901F9018951F928D
:1003F0000F920FB60F9211240BB60F922F933F93CB
:100400004F935F936F937F938F939F93AF93BF931C
:10041000EF93FF936091CE008FE292E083DEFF9135
:10042000EF91BF91AF919F918F917F916F915F916C
:100430004F913F912F910F900BBE0F900FBE0F90D9
:100440001F901895CF93DF93CDB7DEB764970FB6A3
:10045000F894DEBF0FBECDBF9EDEF2DEF8941092A0
:10046000CD008CE08093CC00E8ECF0E080818260ED
:10047000808388E98093C90086E08093CA0019824E
:100480001A8224E12B8389E492E09D838C8385E0AA
:10049000FE013196DE011B9601900D928A95E1F7DF
:1004A00085E0FE013B96DE01509601900D928A9503
:1004B000E1F785E0FE017096ADE5B2E001900D92A6
:1004C0008A95E1F71E821F82288785E392E09A874A
:1004D000898785E0FE013696DE01119601900D9226
:1004E0008A95E1F785E0FE013196DE0116960190CE
:1004F0000D928A95E1F785E0FE013696AFE2B2E013
:1005000001900D928A95E1F7789464960FB6F8946D
:10051000DEBF0FBECDBFDF91CF91089593DF87EA95
:1005200091E60197F1F700C00000C1DE83EC99E08D
:100530000197F1F700C0000080912C0290912D02EC
:100540008130910599F410922E02E0912E02ED3047
:1005500058F4F0E0E050FE4F80810BDE80912E02D7
:100560008F5F80932E02F1CF1BDE2BC0823091056E
:1005700099F410922E02E0912E02EB3058F4F0E044
:10058000E15EFD4F8081F5DD80912E028F5F8093CB
:100590002E02F1CF09DE15C0892B09F0C0CF1092D1
:1005A0002E02E0912E02E03158F4F0E0E25FFD4FC0
:1005B0008081DFDD80912E028F5F80932E02F1CF4C
:1005C000F1DD87EA91E60197F1F700C00000A7CFBF
:0405D000F894FFCFCD
:1005D40054696D20506F6C6C6172640D0A004D7526
:1005E40068616D6D6164204F73616D610D0A004235
:0C05F400727563652059616E0D0A0000ED
:00000001FF
